:020000040000FA
:0600000003EF05F0120001
:020006000000F8
:08000800D9CFE6FFE1CFD9FFDB
:100010006A0EE126D950150FE96EDACFEAFF300EED
:10002000EE6E390EEE6E300EEE6EEE6E310EEE6E40
:10003000460EEE6E350EEE6E450EEE6E380EEE6E20
:10004000390EEE6E430EEE6E310EEE6EEE6AD95044
:10005000220FE96EDACFEAFF570EEE6E650EEE6EF6
:100060006C0EEE6E630EEE6E6F0EEE6E6D0EEE6E3D
:10007000650EEE6E200EEE6EEE6EEE6AEE6AEE6AC3
:10008000EE6AEE6AEE6AD950310FE96EDACFEAFF16
:10009000530EEE6E630EEE6E610EEE6E6E0EEE6E33
:1000A000200EEE6EEE6E430EEE6E610EEE6E720E72
:1000B000EE6E640EEE6EEE6AEE6AEE6AEE6AEE6A5E
:1000C000D950400FE96EDACFEAFF450EEE6E6E0EA4
:1000D000EE6E740EEE6E650EEE6E720EEE6E200E0D
:1000E000EE6E500EEE6E610EEE6E730EEE6EEE6EF6
:1000F000770EEE6E6F0EEE6E720EEE6E640EEE6E9C
:10010000EE6AD9504F0FE96EDACFEAFF410EEE6E7C
:10011000630EEE6EEE6E650EEE6E730EEE6EEE6EAE
:10012000200EEE6E470EEE6E720EEE6E610EEE6EED
:100130006E0EEE6E740EEE6E650EEE6E640EEE6E6C
:10014000EE6AD9505E0FE96EDACFEAFF440EEE6E2A
:10015000650EEE6E6E0EEE6E690EEE6E640EEE6E57
:10016000EE6AEE6AEE6AEE6AEE6A1E0E936EF19E1B
:100170000F0EC16E800E946ED9DAEFDA800EE66E45
:1001800022DBE552D950220FE66E000EDA20E66E31
:1001900079DBE552E552C00EE66E15DBE552D9502B
:1001A000310FE66E000EDA20E66E6CDBE552E552AA
:1001B000680EDB6A690EDB6A680EDBCF14F0690E2D
:1001C000DBCF15F0D890155004E60C0E145C000E31
:1001D00015581FE2D8DAE76E080EE7CFDBFFDBCF5A
:1001E000E6FFC4DAE552D950090F146EDACF15F0E4
:1001F000680EDB501424E96E690EDB501520EA6EA0
:10020000080EDBCFEFFF680EDB2A690E01E3DB2A65
:10021000D3D7150EDB50F36E090EDB50F35C01E013
:1002200062D2160EDB50F36E0A0EDB50F35C01E077
:100230005AD2170EDB50F36E0B0EDB50F35C01E06D
:1002400052D2180EDB50F36E0C0EDB50F35C01E063
:100250004AD2190EDB50F36E0D0EDB50F35C01E059
:1002600042D21A0EDB50F36E0E0EDB50F35C01E04F
:100270003AD21B0EDB50F36E0F0EDB50F35C01E045
:1002800032D21C0EDB50F36E100EDB50F35C01E03B
:100290002AD21D0EDB50F36E110EDB50F35C01E031
:1002A00022D21E0EDB50F36E120EDB50F35C01E027
:1002B0001AD21F0EDB50F36E130EDB50F35C01E01D
:1002C00012D2200EDB50F36E140EDB50F35C01E013
:1002D0000AD2010EE66E77DAE552C00EE66E73DAE8
:1002E000E552D950400FE66E000EDA20E66ECADA0B
:1002F000E552E552F40EE66E010EE66E7FDAE55247
:10030000E552680EDB6A690EDB6A680EDBCF14F01B
:10031000690EDBCF15F0D890155004E6040E145C7E
:10032000000E155801E386D1819A818E818C81B2AD
:1003300021D0310EE66E2CDAE552D9CF14F0DACFA7
:1003400015F0020E086E096A680EDBCF0DF0690E1B
:10035000DBCF0EF0C6EC04F014500624E96E155005
:100360000720EA6E010EEE6EED6A680EDB2A690E5A
:1003700001E3DB2A819A818E818C81B421D0320EF7
:10038000E66E06DAE552D9CF14F0DACF15F0020E98
:10039000086E096A680EDBCF0DF0690EDBCF0EF038
:1003A000C6EC04F014500624E96E15500720EA6EDE
:1003B000020EEE6EED6A680EDB2A690E01E3DB2A9F
:1003C000819A818E818C81B621D0330EE66EE0D980
:1003D000E552D9CF14F0DACF15F0020E086E096A93
:1003E000680EDBCF0DF0690EDBCF0EF0C6EC04F02B
:1003F00014500624E96E15500720EA6E030EEE6EC7
:10040000ED6A680EDB2A690E01E3DB2A819A818E90
:10041000818C81B821D0340EE66EBAD9E552D9CF9D
:1004200014F0DACF15F0020E086E096A680EDBCF01
:100430000DF0690EDBCF0EF0C6EC04F0145006246C
:10044000E96E15500720EA6E040EEE6EED6A680E36
:10045000DB2A690E01E3DB2A819C818E818A81B2CD
:1004600021D0350EE66E94D9E552D9CF14F0DACF0B
:1004700015F0020E086E096A680EDBCF0DF0690EEA
:10048000DBCF0EF0C6EC04F014500624E96E1550D4
:100490000720EA6E050EEE6EED6A680EDB2A690E25
:1004A00001E3DB2A819C818E818A81B421D0360EC2
:1004B000E66E6ED9E552D9CF14F0DACF15F0020E00
:1004C000086E096A680EDBCF0DF0690EDBCF0EF007
:1004D000C6EC04F014500624E96E15500720EA6EAD
:1004E000060EEE6EED6A680EDB2A690E01E3DB2A6A
:1004F000819C818E818A81B621D0370EE66E48D9E3
:10050000E552D9CF14F0DACF15F0020E086E096A61
:10051000680EDBCF0DF0690EDBCF0EF0C6EC04F0F9
:1005200014500624E96E15500720EA6E070EEE6E91
:10053000ED6A680EDB2A690E01E3DB2A819C818E5D
:10054000818A81B821D0380EE66E22D9E552D9CF02
:1005500014F0DACF15F0020E086E096A680EDBCFD0
:100560000DF0690EDBCF0EF0C6EC04F0145006243B
:10057000E96E15500720EA6E080EEE6EED6A680E01
:10058000DB2A690E01E3DB2A819E818C818A81B29C
:1005900021D0390EE66EFCD8E552D9CF14F0DACF6F
:1005A00015F0020E086E096A680EDBCF0DF0690EB9
:1005B000DBCF0EF0C6EC04F014500624E96E1550A3
:1005C0000720EA6E090EEE6EED6A680EDB2A690EF0
:1005D00001E3DB2A819E8150400B02E0818A01D039
:1005E000819A81B420D0300EE66ED2D8E552D9CFB0
:1005F00014F0DACF15F0020E086E096A680EDBCF30
:100600000DF0690EDBCF0EF0C6EC04F0145006249A
:10061000E96E15500720EA6EEE6AED6A680EDB2A75
:10062000690E01E3DB2AC80EE66EE66AE7D8E552FA
:10063000E5526BD6D9CFE9FFDACFEAFF010EEE180B
:1006400001E1ED5037E1D950020FE96EDACFEAFF50
:10065000020EEE1801E1ED502DE1D950040FE96EC4
:10066000DACFEAFF030EEE1801E1ED5023E1D95095
:10067000060FE96EDACFEAFF040EEE1801E1ED5045
:1006800019E1010EE66E9FD8E552800EE66E9BD80A
:10069000E552D9504F0FE66E000EDA20E66EF2D822
:1006A000E552E552880EE66E130EE66EA7D8E552C7
:1006B000E55218D0010EE66E86D8E552800EE66E41
:1006C00082D8E552D9505E0FE66E000EDA20E66E53
:1006D000D9D8E552E552880EE66E130EE66E8ED836
:1006E000E552E55218D0010EE66E6DD8E552800E47
:1006F000E66E69D8E552D9505E0FE66E000EDA203C
:10070000E66EC0D8E552E552880EE66E130EE66E30
:1007100075D8E552E55232D56A0EE15C02E2E16A33
:10072000E552E16EE552E7CFD9FF1200956A946A6F
:10073000300EE66E48D8E552380EE66E44D8E552E3
:10074000010EE66E40D8E5520F0EE66E3CD8E5523B
:10075000800EE66E38D8E5521200800E946E240E9C
:10076000AC6E900EAB6E810EAF6E1200D9CFE6FF6D
:10077000E1CFD9FFFE0EDB50AD6EACA2FED7E55245
:10078000E7CFD9FF12009EAAFED7AE5000D01200CC
:10079000D9CFE6FFE1CFD9FFFE0EDB50836E828218
:1007A000829082840A0EE66EE66A28D8E552E55207
:1007B00082940A0EE66EE66A21D8E552E552E552C9
:1007C000E7CFD9FF1200D9CFE6FFE1CFD9FFFE0E68
:1007D000DB50836E8292829082840A0EE66EE66A15
:1007E0000DD8E552E55282940A0EE66EE66A06D806
:1007F000E552E552E552E7CFD9FF1200D9CFE6FF27
:10080000E1CFD9FF040EE126DE6ADD6ADECF14F007
:10081000DDCF15F0FD0EDBCF16F0FE0EDBCF17F0AF
:1008200015501718E8AE02D0173404D01650145CD7
:10083000175015581DE2020EDB6A030EDB6A020E2A
:10084000DBCF14F0030EDBCF15F0D890155004E683
:10085000F20E145C010E155806E2020EDB2A030E9E
:1008600001E3DB2AECD7DF2A010E01E3DB2ACED736
:10087000040EE15C02E2E16AE552E16EE552E7CF87
:10088000D9FF1200D9CFE6FFE1CFD9FF020EE12652
:10089000DE6ADD6AFD0EDBCF14F0FE0EDBCF15F055
:1008A000DE501424E96EDD501520EA6EEF5015E09D
:1008B000FD0EDBCF14F0FE0EDBCF15F0DE5014245E
:1008C000E96EDD501520EA6EEF50E66E61DFE5520D
:1008D000DF2A010E01E3DB2ADDD7020EE15C02E232
:0E08E000E16AE552E16EE552E7CFD9FF120062
:0208EE00060EF4
:1008F000F66E000EF76E000EF86E00010900F5505E
:10090000856F0900F550866F03E1856701D03DD002
:100910000900F550806F0900F550816F0900F5500E
:10092000826F09000900F550E96E0900F550EA6E82
:10093000090009000900F550836F0900F550846F24
:1009400009000900F6CF87F0F7CF88F0F8CF89F0DB
:1009500080C0F6FF81C0F7FF82C0F8FF000183531B
:1009600002E1845307E00900F550EE6E8307F8E2D8
:100970008407F9D787C0F6FF88C0F7FF89C0F8FF62
:0C09800000018507000E865BBFD7120047
:04098C0009C013F09B
:1009900008C012F008500D02F4CF07F0F3CF06F0B4
:1009A00009500E02F4CF09F0F3CF08F00D02F35016
:1009B0000726F4500822E86A092212500E02F3506A
:1009C0000726F4500822E86A09220EAEECEF04F084
:1009D0001250085E1350095A13AE000C0D50085EF9
:0609E0000E50095A000C44
:0A09E600000EF36E00EE00F0060EA6
:1009F00001D81200EA6002D0EE6AFCD7F350E96039
:060A00001200EE6AFCD7B3
:0A0A060015EE00F025EE00F0F86A8E
:100A1000019C77EC04F011EC05F004EC00F0FBD73E
:020A20001200C2
:020A22001200C0
:00000001FF
